:020000040000fa
:080000000001040000000000f3
:020000040000fa
:100008009401000094010000940100009401000094
:100018009401000094010000940100009401000084
:10002800940100009401000094010000ee04000017
:100038009401000094010000940100009401000064
:100048009401000094010000940100009401000054
:100058009401000094010000940100009401000044
:100068009401000094010000940100009401000034
:1000780094010000020500009401000094010000b2
:10008800940100009401000094010000160500008e
:100098009401000094010000940100009401000004
:1000a80094010000940100009401000094010000f4
:1000b80094010000940100009401000094010000e4
:1000c80094010000940100009401000094010000d4
:1000d80094010000940100009401000094010000c4
:1000e80094010000940100009401000094010000b4
:0800f8009401000094010000d6
:020000040000fa
:100108009401000094010000940100009401000093
:100118009401000094010000940100009401000083
:10012800940100009401000094010000ee04000016
:100138009401000094010000940100009401000063
:100148009401000094010000940100009401000053
:100158009401000094010000940100009401000043
:100168009401000094010000940100009401000033
:1001780094010000020500009401000094010000b1
:10018800940100009401000094010000160500008d
:100198009401000094010000940100009401000003
:1001a80094010000940100009401000094010000f3
:1001b80094010000940100009401000094010000e3
:1001c80094010000940100009401000094010000d3
:1001d80094010000940100009401000094010000c3
:1001e80094010000940100009401000094010000b3
:0801f8009401000094010000d5
:020000040000fa
:100200004f8020000e7f22000e01880000000000b9
:1002100000012000200288000c000700a0722000ce
:100220000100200011000700000020000000e00095
:10023000020032000000020000000000d4040200ae
:10024000000000000040da000000fe004440a90069
:10025000000020000000e000030032000000200049
:10026000a00188004440a800000006009101880019
:10027000800078000000eb0015003700e2804000ad
:1002800032a0b4009101ba00e280400032a0b40074
:100290009102ba00e280400032a0b4000002eb00fc
:1002a000472bde00f507b200602ce10004003a00a5
:1002b0000059eb008301e900fdff3e000400370018
:1002c0006128e100010032000082eb000400070019
:1002d0001101ba000200e000e8ff3a000000060049
:1002e0003159ba008301e9000c0032002159ba00eb
:1002f0008301e900080032000400e00003003a0036
:10030000e280400032a0b400f5ff370011d9ba00f6
:100310008301e900faff3a008100e800e180400033
:1003200032a0b400000006000040da000000fe0029
:10033000901c8800a11c8800000006000002eb0051
:100340008180fb0009003700e04f510003003200bc
:1003500065372000e14f5100010032006538200070
:1003600065487a000402e8000000e800810f5200ae
:10037000f5ff350000000600401bde0007002000ee
:10038000e1cf520008003200e2cf52000a003200f2
:10039000001b8800161b8800221b88000003eb004e
:1003a0008483fb0012003700801a8800961a8800a8
:1003b000a21a8800f9ff3700001a8800161a880070
:1003c000221a8800f5ff370060352000e1cf520087
:1003d0000400320060362000e2cf520001003a00f3
:1003e0006034200011707b000603e8008100e80003
:1003f000870f5300f4ff35006f426200e1cf5200d7
:100400000a003200e2cf520011003200e0cf520069
:1004100018003a006f0262004322dd0075f82f00d9
:10042000261b800086826200170037006f02620080
:100430004322dd0075f82f00a21a8000828262003c
:1004400004827200a41a88005e63a80000000600ff
:100450006f0262004322dd0075f82f00261a80002b
:100460008682620004827200241a88004e63a8000b
:10047000000006006f0262004322dd0075f82f00c5
:10048000221b80008282620004827200241b88008a
:100490006e63a80000000600889fbe00401cde00be
:1004a000090020000003fb00cfb3de00e50f53007e
:1004b000e08f5b001e003e00066001000500370073
:1004c000070037000a0037000d0037001000370022
:1004d000130037000118880018188800160037002c
:1004e00041188800581888006218880013003700e7
:1004f0008118880098188800a21888000f0037001b
:10050000c1188800d8188800e21888000b0037004e
:10051000011988001819880022198800070037007f
:1005200041198800581988006219880003003700b3
:100530000118880018188800221888004f04be008f
:1005400000000600401ade0005002000e04f5000c9
:1005500006003200e14f500004003a00c119880043
:10056000d4198800e219880000000600811988006b
:1005700094198800a219880000000600801c8800d9
:1005800000000600e04f500004003200e14f500030
:1005900002003a00f11b880000000600711c880070
:1005a00000000600e14f500003003200e24f50000f
:1005b00005003a0002003700f11a8800000006002a
:1005c000711a880000000600711b880000000600f8
:1005d0009623ef008760a900c01c8800e7826000b6
:1005e000cc2add00f4ff2800060580000602620028
:1005f0000502720004058800e8806000c308de0080
:10060000e1806000cb08dd00f47f2f0075048000de
:1006100005026200010272007404880000000600f6
:10062000839f68000100e00002003d0060001000b0
:10063000e08018000300e00002003d0060011100ae
:10064000e0811900140007004f00e00002003b00a9
:1006500060001000e080180000000600811f780094
:100660000100e00002003d0060001000e080180082
:100670000300e00002003d0060011100e08119006c
:10068000150007004f00e00002003b006000100072
:10069000e0801800000006006022b800060220007a
:1006a0000000d0008180d2000482d2008582d20076
:1006b0000000a0000202520083825a0003003100b1
:1006c0000202420083824a000000a1000603e90002
:1006d000f3ff3a0000000600efff07000400be0031
:0406e0000000060010
:020000040000fa
:1006e4000800fa0020079800310798006022b8003b
:1006f400048fbe006022b800048fbe0004003700df
:1007040014002000050020001e0f42005e974a00de
:100714002e029000be0290001e03be00840f530000
:10072400858f5b00f6ff35000080fa0000000600ac
:100734000e00fa00400798005107980062079800dd
:100744006e029000eb0242000042eb00844a780003
:100754000042eb00044f7800a40020001407980026
:100764004e029000de029000e00f5200e08f5a002b
:1007740008003a001e029000ee02900084824200bb
:1007840004c3b300844a78001e0290000402e90006
:10079400140798004e029000de029000e00f520011
:1007a400e08f5a0029003d004e029000de029000c6
:1007b40060021200e0821a0044079800550798006e
:1007c40000c2eb00044f7800200037004e02900076
:1007d400de02900024079800350798002e0290004e
:1007e400be029000a2002000030020000400be000e
:1007f40099ff07000002be002407980035079800ff
:100804001e029000ee029000848242002e029000ac
:10081400044278000443b000844a78001e02900029
:100824000402e900140798004e029000de029000d2
:10083400a2002000030020000400be0077ff070090
:100844000002be0044079800550798004e0290002d
:10085400de029000e00f5200e08f5a00dbff3c0004
:100864001e427800e14f420008003a001e02900048
:10087400ee02900084824200d4c2b300844a78001d
:100884001e0290000402e900140798001e02900062
:100894000402e800040078000080fa00000006006a
:1008a4000800fa0010079800210798003207980002
:1008b4000e8fe8001e02780014427800be029000f9
:1008c400844a78003e0290008402e8001e02e80098
:1008d40014427800844a78003e0290008482e80042
:1008e4001e82e80014427800844a78003e02900098
:1008f400e30242001e0378006302430014427800be
:10090400844a78000080fa00000006000000fa0023
:100914000002eb0024088800240880000440a000a2
:100924000450a0002408880004a62e00140888009f
:10093400a404800004c0a00004d0a10004e0a1002d
:10094400a40488008460a9008c60a80005e1a800c4
:100954000080fa00000006000000fa000002eb002c
:10096400f4088800f40880000440a0000450a000ab
:10097400f408880004a62e00d4088800f40480003b
:100984000440a0000450a0000460a100f404880006
:1009940086a0a9008ea0a8001fe1a8000080fa008c
:1009a400000006000400fa00000f78001107980008
:1009b4000082eb00441588000060fe00c3000700bd
:1009c400e5ff07000060fe0000242400f100200081
:1009d40043ff0700fbff37003400f800881f78004e
:1009e40008002000a80188004f0478000000fa00e5
:1009f40086a0a9000080fa003400f9000040060037
:100a04003400f800881f780008002000a80188003e
:100a14004f0478000000fa0086a0a9000080fa00c4
:100a24003400f900004006003600f800809fbe0044
:100a3400829fbe00849fbe00869fbe003400f800e3
:100a440000002000a00188000a00fa008760a900c5
:100a54009603a900841c80006e026200ee0f52000f
:100a640002003a0096c3a9000c003700041c800061
:100a74004222de00f57f200005026200040f7800a8
:100a84000e82e80004007800e80007002e4290007f
:100a940004407800090007008ee3a9000080fa00f2
:100aa4003400f9004f03be004f02be004f01be00e8
:100ab4004f00be003600f900004006000200fa00b4
:100ac400004f78001ecfea00c702a900c722a90080
:100ad400c742a900c762a900c782a900c7a2a9008a
:100ae400c7c2a900c7e2a9001e42780061426200a1
:100af40061426200614262000482fb0061026200a2
:100b04004822dd0056168000f5ef2f0085026300b1
:100b140004827200541688001e02fb000482d10075
:100b2400044f78001e427800614262006142620014
:100b3400614262000482fb00610262004922dd001e
:100b440056168000f5df2f008502630004827200d0
:100b5400541688001e02fb000482d100044f780062
:100b64001e4278006142620061426200614262009a
:100b74000482fb00610262004a22dd0056168000f6
:100b8400f5bf2f00850263000482720054168800aa
:100b94001e02fb000482d100044f78001e4278003c
:100ba4006142620061426200614262000482fb00b1
:100bb400610262004b22dd0056168000f57f2f0093
:100bc4008502630004827200541688001e02fb0032
:100bd4000482d100044f78001e4278006142620012
:100be40061426200614262000482fb0061026200b1
:100bf4004c22dd0056168000f5ff2e0085026300ae
:100c040004827200541688001e02fb000482d10084
:100c1400044f78001e427800614262006142620023
:100c2400614262000482fb00610262004d22dd0029
:100c340056168000f5ff2d008502630004827200c1
:100c4400541688001e02fb000482d100044f780071
:100c54001e427800614262006142620061426200a9
:100c64000482fb00610262004e22dd005616800001
:100c7400f5ff2b008502630004827200541688007d
:100c84001e02fb000482d100044f78001e4278004b
:100c94006142620061426200614262000482fb00c0
:100ca4004f22dd0056168000f5ff27008502630001
:100cb40004827200541688001e02fb000482d100d4
:100cc400044f78000080fa00000006000400fa00d7
:100cd40000c0200028fe070000000000841c8000e3
:100ce4004522de00674262000482fb00e30f5200eb
:100cf400faff3400815b2000200020008bfd0700f8
:100d0400d1ff2f003000200030fe07000440800097
:100d1400cfa2de00048fbe006011b80001212100c3
:100d24000040eb00dbfd07006011b800d1ff21009b
:100d34000040eb0002fe07006011b8000121210011
:100d440010c0b300d3fd07006011b800d1ff21002b
:100d540010c0b300fafd0700310020000040eb0092
:100d64000ffe0700410020000040eb0004fe0700d6
:100d74003100200010c0b30009fe0700410020002c
:100d840010c0b300fefd07003100200020c0b300f6
:100d940003fe07004100200020c0b300f8fd070057
:100da40000802a00f4fd070000000000851c80007c
:100db400040e200004826200e00f5200fbff3a00a0
:100dc4000080fa00000006000600fa00000f780018
:100dd40011079800424798004e4290009e039000ed
:100de400057c20009e826200452bdd009e02780077
:100df4004228dd00f50f2000850260000503730022
:100e0400c58f2f00050363008442780084c0b300bb
:100e140087007800825f200003002000060078002d
:100e240054fd07000080fa00000006000200fa00ea
:100e3400000f78001e0278000041eb0081c0b3006f
:100e4400040078003cfd07000080fa000000060062
:020000040000fa
:100e5400000800000400000002000000020000007e
:080e6400000000000000000086
:020000040000fa
:0200000401f009
:04000000e7bf000056
:020000040000fa
:0200000401f009
:04000400ffff0000fa
:020000040000fa
:0200000401f009
:040008004fff0000a6
:020000040000fa
:0200000401f009
:04000c00ffff0000f2
:020000040000fa
:0200000401f009
:04001000ffff0000ee
:020000040000fa
:0200000401f009
:04001400ffff0000ea
:020000040000fa
:0200000401f009
:04001800ffff0000e6
:00000001FF
